:020000020000FC
:101F10006CCDFB5851FED97B9660D838EE455E22D9
:101F200003956870526BB10BC40B69332A4E37119D
:101F30002E0FEA957C645B9EB86F32AD922105BC92
:101F4000D7648FDAAB00D444136FE6E9814EE355D2
:101F5000F07573D65B75A792481A417BC954A22EBF
:101F6000C04F420B9B3AE599D320A4E21A7406CCE9
:101F7000722009A9E91AEC303A3A48D2204E4E1E96
:101F80001D0F7B1EF415972ECE2FDFFCEE6191E224
:101F9000728EE336869B741848B4ABE4A6D53A0635
:101FA0006A0E8C12EC95F80AA42153EE02F469E84B
:101FB000E3F717650F62EF6FAB43BC81A9B7D56933
:101FC00009BE11586765FFA1AB15A14B46265540C8
:101FD000FC0468C6E6E041ABE149FF246DBC651432
:101FE000137C22B0CECBFF43562B42968C4CAA805A
:101FF000A29B4BF92881888DC6C407BD6DDB119B60
:101C00004FE54DBF44E04EBFF8942224322C30946F
:101C100043E320BC49B948E14AB946E840BDA5982C
:101C2000AD9A00009D9BECC10000B0E0A0E63FEF44
:101C30003395532F521501F1032C0394402C552E4C
:101C40006BE14427469408F44525550C08F45626C4
:101C50004214C1F7413089F7552791EF71E0802D8B
:101C60008923880F08F457278215D9F7770F990F22
:101C700008F49160721599F763E656275D93331166
:101C8000D7CF85D04036E9F7FF27EE2740E74F93BF
:101C9000FF93EF93B1E0A0E650E679D04D935A95CB
:101CA000E1F7FFE1E0EFD1E0C0EB45915881452736
:101CB0004993C03CD1F7B1E0A0E661D0FFE1E0EE8E
:101CC000ACD0FFE1E0ECA9D08CD052D0D1E0C0EB99
:101CD000F1E0E0E645D0D1E0C0EC83D04BD0DF931B
:101CE000CF934BD030D044D0CF91DF91C030A9F703
:101CF0002E92A430E9F7FFE1E0ED8FD044E0F1E06F
:101D0000E0E72CD04F93413019F4FFE1E0EE85D0AD
:101D100068D04F914A95A9F7F1E0E0EB1FD0442736
:101D20005A91452BC430E1F7421509F009C0EF91F3
:101D3000FF9135D04F914A9509F0A9CF4CE028D0BA
:101D40004FEF26D0FDCFD0E0C4E144274881413099
:101D50004A91421D4883C530C8F70895D0E0C4E0D9
:101D600060E171915881572759936A95D1F7089589
:101D7000D1E0C0E6B0E0A4E004C0B1E0A0E6D0E06D
:101D8000C4E040E15D9159934A95E1F7089540EC34
:101D90005D9BFECF4CB95F9BFECF4CB1089553E0E5
:101DA0001AD0D1E0C0E7B1E0A0EC09906D91062611
:101DB00019906D9116260426142651E00CD0329607
:101DC000C03B99F7E054F04055E005D0E05CFF4F90
:101DD00051E101D0089567B760FDFDCF57BFE89589
:101DE0000895FF93EF93DF93CF93BF93AF93FFE1FA
:101DF000E0E113D049E04F9348D018D00ED001C095
:101E0000FFCE4F914A95B9F740D007D0AF91BF911F
:101E1000CF91DF91EF91FF910895DD27C4E04591C7
:101E2000588154275993C431D1F70895DD27C4E070
:101E3000688179818A819B81472F5FD0542F462703
:101E400049274983462F59D0042E4527472748273D
:101E500049274883502D492F50D0042E4527462727
:101E6000472748274B83502D482F47D0042E45271E
:101E70004927462747274A83502D49814527482728
:101E800049832496C431A1F60895B0E0A0E60D017F
:101E9000DD27C4E0D0014885A40FB21D4C914887CE
:101EA000D0014C85A40FB21D4C914C87D0014C81C0
:101EB000A40FB21D4C914C83D0014881A40FB21DD8
:101EC0004C914993C3FFE6CF51261525512659243D
:101ED000952459249D24D9249D246E24E6246E241F
:101EE000A2262A25A226732637257326B3263B254C
:101EF000B326F3263F25F326089547FB20F801C0BB
:101F00007FCE24F8440F23F821F842252224089597
:00000001FF
